:400000000040002011000000A1080000A108000080B500AF00F078FC80B500AF244B12221A6002F09DFA234B180002F0C9FA012002F0A6FA302002F069F91F4B1F4A1A604C
:400040001F4B8022D2051A601E4B1E4A126802210A431A601C4B1D4A1A601D4B00221A601C4B1C4A126808218A431A60FA23DB00180002F099F9184B180002F011FA174B7D
:40008000C82252011A60164B164A1A60164B802212061A60154B8022D2021A60144B40221A60074B8022D2051A60C046BD4680BD30001040001BB70004010B40060000807B
:4000C0000C020B4078002E407C002E406A2D000064F02E406CF02E40DC050000000301400000014040FF008008010B4000010B400401014080B582B000AF72B6384B0022C6
:400100001A60FB1D00221A7022E0FB1D1A7813005B009B185B00334A9B183B603B681A78597809020A43997809040A43DB781B06134318003B681A795B791B0213439BB219
:40014000190000F089FBFB1D1A78FB1D01321A70FB1D1B78012BD8D9234BEE2212061A60224B992212041A60214B992212041A60204B992212041A601F4B992212041A6001
:400180001E4B992212041A601D4A1D4B1B78DBB206210B43DBB213701A4BD82212041A60194B20221A60194BC42292021A60184B20221A60174B40221A60174BC0225203BA
:4001C0001A60164BC0221A60154BD82212041A60FFF722FF00F050FBC046BD4602B080BD6CF02E40A05C0100000002400001024000500F4010500F4020500F4030500F406C
:4002000000700F40080004400001044008010440180104400002044008020440000304400803044010B5064C2378002B07D1054B002B02D0044800E000BF0123237010BD29
:40024000780F002000000000105A0100084B10B5002B03D00749084800E000BF07480368002B00D110BD064B002BFBD09847F9E7000000007C0F0020105A0100A80B0020A5
:400280000000000080B500AF012001F0CBFF012002F014F8012001F0EDFF62B6064B180000F018FC01F0CEFE044B180002F01AFEC046BD4680BDC0461D060000145A0100D0
:4002C00080B500AF3B4B00221A703B4B00221A703A4B00221A703A4B00221A70FFF7D2FF03F0B0FD01F0DEFE031E5FD001F07AFF0200344B1A60334B1B68442B03D0314BAC
:400300001B68642B0FD1304B180002F0EBFD2F4B1B7818000EF0F2F9284B00221A70284B00221A7042E0274B1B68303B244A1278934237D2264B1B78002B33D0214B1B6899
:40034000DBB2303BDAB21C4B1A701A4B01221A70204B1B78042B02D000F09CFC03E01E4B180002F0BFFD154B1B78002B1ED0174B1B7818000EF0C2F903001A00174B1A8072
:40038000164B1B88002B04D0154B180002F0AAFD0CE0094B1B781A00124B1100180002F011FD03E0104B180002F09CFD00F0F0F996E7C046E5200020D4200020DC20002024
:4003C000E6200020E0200020385A0100D8200020E420002020210020545A0100DA2000207C5A0100B05A0100FC5A0100F0B589B004AF78607C4B1B78022B00D9ECE07B680D
:400400001B78002B0BD07B681B78012B07D07B681B78022B03D07B681B78032B2FD10E23FB1800221A7025E00E23FB181A787B6859680E23FB181B78CB1819780823FB1898
:4004400099540E23FB181B780822BA18D25C0E23FB181B786549CB5C9A4204D1644B1B685A1C634B1A600E23FB181A780E23FB1801321A700E23FB181B78052BD4D95C4B2F
:400480001B68062B00D0A7E05A4B01221A707B681B78002B0BD07B681B78012B07D07B681B78022B03D07B681B78032B61D14E4B1B781A001300DB009B1A4F4A98187B6889
:4004C0005B680622190002F06CFC474B1B781900494A0B00DB005B1AD318063301221A70464B180002F0FEFC3F4B1B781A00444B1100180002F066FC7B681B7C5BB21A0028
:40050000404B1100180002F05DFC7B685B6805331B781C007B685B6804331B781D007B685B6803331B781E007B685B6802331B781A007B685B6801331B7819007B685B6861
:400540001B78314802930191009233002A00210002F038FC7B681B7A1A002C4B1100180002F030FC204B1B780133DAB21E4B1A7032E07B681B78042B2ED1254B180002F0E1
:40058000B1FC7B681B7A002B26D00F23FB1800221A7013E07B68DA680F23FB181B78D3181B781A001B4B1100180002F00BFC0F23FB181A780F23FB1801321A707B681B7AA3
:4005C0000F22BA1812789A42E4D3134B180002F089FC0A2002F010FC054B00221A60C046BD4605B0F0BDC046E6200020AC0B0020940F0020E4200020E82000200C5B0100F5
:40060000105B0100285B0100345B0100505B01007C5B0100945B0100985B010080B588B000AF786039607B68202B34D004D8012B09D0022B1BD091E0282B5ED0412B36D0B6
:40064000272B40D08AE0474B180002F04BFC002000F0CCFA031E00D07BE0012001F0E2FD002001F02BFE012001F004FE71E03B681B88022B0FD13C4B180002F033FC0120E5
:4006800000F0B4FA012001F0CDFD002001F016FE012001F0EFFD3B681800FFF7A7FE39680C23FB181422180002F07BFB56E02F4B01221A702E4A3B681000190002231A00CE
:4006C00002F06FFB4AE02B4B00221A702A4B180002F008FC012001F0A5FD012001F0EEFD002001F0C7FD002000F080FA031E32D0224B180002F0F6FB2DE0002001F092FD87
:40070000012001F0DBFD012001F0B4FD174B00221A701B4B180002F0E5FB1A4B1B78002B1BD1002000F062FA031E04D0164B180002F048FB11E0012001F074FD002001F00B
:40074000BDFD012001F096FD104B180002F0CAFB03E0C04602E0C04600E0C046C046BD4608B080BD9C5B0100B45B0100DC200020D8200020E6200020C05B0100F45B01006D
:400780000C5C0100E5200020285C0100405C010080B500AF194B1B78DBB2012B2BD0184B1B78002B28D1174B1B78052B24D1164B1B78002B20D0154B1B781A001300DB00BC
:4007C0009B1A134A9B18180000F076FA03001A00104B1A800F4B1B88002B04D00E4B180002F080FB03E00D4B180002F07BFB064B00221A7000E0C046BD4680BD3021002081
:40080000DC20002020210020E5200020D4200020E8200020DA2000204C5C0100785C010080B586B000AFF860B9607A6000237B6109E0BB685A1CBA601B78180001F042FC68
:400840007B6901337B617A697B689A42F1DB7B681800BD4606B080BD80B582B000AF786039603A687B680021180002F0A3FAC046BD4602B080BDC04680B500AF054B0322FA
:400880001A60054B03221A60044B00221A60C046BD4680BD3000304030003140000E3F4080B500AF02F042FA03001B680C2B00D1FEE7FEE780B584B000AF7860104B1A6899
:4008C0007B68D3181A000F4BD21A8023DB009A4209DC0B4B1B68FB60094B1A687B68D218074B1A6007E002F021FA03000C221A6001235B42FB60FB681800BD4604B080BDBE
:40090000B40B00205021002080B586B000AF224B7B61224B3B61204B7B6135E03B691B68FB603B695B68BB603B699B683B6000237B600CE0FB681A68BB681A60BB68043373
:40094000BB60FB680433FB607B6804337B607A683B689A42EED13B69DB683B6000237B6008E0BB6800221A60BB680433BB607B6804337B607A683B689A42F2D13B691033B6
:400980003B617B69013B7B617B69002BC6D102F0D3F9FFF795FCFEE701000000745F010080B582B000AF154B144A126801218A431A6000237B600FE07B68032B04D8104B0E
:4009C0007A689200D35800E00E4B0F4A796889008B507B6801337B607B682F2BECD9FFF789FB0A4B00221A60044B044A126801210A431A60C046BD4602B080BD00001040DA
:400A000000000000A108000000000020C000002080B500AF194B00221A70194B00221A70184B00221A70184B5A88184B1A80164B9A88164B5A80144B9A79144B1A73124B3F
:400A4000DA79124B1A71114B0622DA810F4B08221A820E4B00225A820C4B64229A820B4B0022DA82094B012252421A83084B1E221A8000F00FF8C046BD4680BD482100207D
:400A80003021002046210020B80B0020042100201E21002080B500AF0B4B1B88002B05D10A4B0E220021180002F084F9064BDB88002B05D1064B06220021180002F07AF9E0
:400AC000C046BD4680BDC046D00B00203821002028210020B0B594B004AF78603E23FB1800221A802823FA18394B1000190014231A0002F056F9374B1B78002B04D1FFF7C2
:400B000087FF344B01221A707B68002B55D0324B7A681A603E23FB181B88002B29D11023FB181C22BA185A601023FB182022BA181A601023FB1800221A812023FB181B2241
:400B40001A802023FB181B225A802023FB1804221A711C23FB1800221A703E23FC180E23FA181023FB181100180003F047FA030023803E23FB181B88002B22D13E23FC18BE
:400B80002823FD18AE231A01144915480023029300230193052300932B0003F085F9030023803E23FB181B88002B0AD10D4B01221A700D4B08221A7003E03E23FB1801221B
:400BC0001A803E23FB181B881800BD4610B0B0BDAC5C0100980F002000210020C80000209D100000202100202121002090B585B000AF0200FB1D1A70FB1D1B78022B04D911
:400C00000E23FB1801221A8035E0FB1D1B78002B09D11C4B1C4A1A811A4B30225A80194B30229A800EE0FB1D1B78012B0AD1154B96221A81134B802212015A80114BE12286
:400C4000D2009A80114BFA1D12781A700E23FC180C4B18000EF008F8030023800E23FB181B88002B07D10A4B1B78DBB204221343DAB2074B1A700E23FB181B881800BD4664
:400C800005B090BDB80B002010270000462100204821002080B500AF0EF012F8054B1B78DBB208221343DAB2024B1A70C046BD4680BDC0464821002090B585B000AF7860F3
:400CC000294B1B78052B05D00E23FB180422FF321A8041E07B68002B04D10E23FB1801221A8039E00D23FB1800221A7012E00D23FB181B780D22BA1812787968895C1B4A28
:400D0000D3180A1C5A710D23FB181A780D23FB1801321A700D23FB181B78052BE7D97B689A79124BDA720E23FC18104B18000DF041FF030023800E23FB181B88002B0BD114
:400D4000094B04221A700A4B1B88002B04D0084B1B8818000AF0F0FE0E23FB181B881800BD4605B090BDC04620210020042100201E21002090B583B000AF104B1B78042B2F
:400D800004D0BB1D0422FF321A8011E0BC1D0DF003FF030023800A4B1B88002B01D00AF0E5FEBB1D1B88002B02D1044B05221A70BB1D1B881800BD4603B090BD20210020E6
:400DC0001E21002080B582B000AF78607B681B789AB27B6801331B789BB21B029BB213439BB21800BD4602B080BDC04680B582B000AF78607B68DB880D4A934214D10D4B33
:400E00005B88002B08D17B689A880A4B5A807B689A78084B1A7007E0074B1B687A68911D8622520010009847C046BD4602B080BD052A0000282100200021002080B582B058
:400E400000AF78607B689B880B4A934210D10B4B9B88002B04D17B685A88084B9A8007E0074B1B687A68111D8622520010009847C046BD4602B080BD0229000028210020EE
:400E80000021002080B582B000AF78600C4B5A887B689B899A420ED10A4B1B6879688322520010009847084B1B78DBB201229343DAB2054B1A70C046BD4602B080BDC04699
:400EC00028210020002100204821002080B582B000AF7860C046BD4602B080BD80B582B000AF7860C046BD4602B080BD80B582B000AF7860C046BD4602B080BD80B582B0A6
:400F000000AF7860C046BD4602B080BD80B582B000AF7860C046BD4602B080BD80B500AF094B00225A70084B00221A70074B1B78052B03D1054B07221A7002E0034B0822E3
:400F40001A70C046BD4680BD342100202121002080B582B000AF78607B681B78032B3ED1264B1B78DBB21A000223134037D0244B1B78022B10D002DC012B05D024E0032BDF
:400F800012D0042B18D01FE01E4B1B680822FF3200211000984717E01A4B1B68842252000021100098470FE0164B1B680A22FF3200211000984707E0124B1B6885225200FB
:400FC000002110009847C0460C4B1B78DBB202229343DAB2094B1A70094B00221A707B681B78042B05D1084B1B78042B01D1FFF7C1FEC046BD4602B080BDC0464821002062
:4010000021210020002100202021002080B500AFC046BD4680BDC04680B584B000AF78600E23FB1800221A707B689B79002B1CD10F23FB1800221A7012E00F23FB181B78D2
:401040007A68D35C002B04D00E23FB1801221A700BE00F23FB181A780F23FB1801321A700F23FB181B78052BE7D90E23FB181B781800BD4604B080BD80B582B000AF0200E8
:40108000BB1D1A80C046BD4602B080BD80B582B000AF7860C046BD4602B080BD80B588B000AF02003960FB1D1A70CD4B1B78DBB201221343DAB2CA4B1A70FB1D1B78712B64
:4010C00000D984E19A00C74BD3181B689F461023FB1807221A701023FB1800225A701023FB18180004F070FE1023FB1807221A701023FB1801225A701023FB18180004F04A
:4011000063FEB94B1B681800FFF786FF031E05D0B54B1B68180002F099FE2CE0B34B1B781A003F231A40B24B1B789901FC231B010B401A43AF4B1B781903F8235B020B402E
:401140001A43AD4B1B785904FE231B040B401343BB61BB69DAB2A94B1A70BB691B0ADAB2A64B5A70BB691B0CDAB2A44B9A70A34B180002F06BFE03200DF008FC0C23FB18D8
:401180003F221A700C23FB1800225A700C23FB1818000DF019FC9A4B05221A7043E13B681800FFF7D5FE3EE13B681A78954B1A7039E13B687B617B691B78002B00D008E1BA
:4011C0007B695B78002B0BD18F4B0022DA808E4B00229A808C4B8D4A1A607B698A4A5A607F4B1B78DBB201229343DAB27C4B1A70EFE07B4B1B78DBB21A002023134000D037
:40120000E9E0834B1B78102B02D1814B0522DA70804B1B787E4A110018000DF0C3F9DAE03B681800FFF732FFFDE03B681800FFF72DFF794B1B88002B01D00AF097FC704B30
:4012400002221A70EFE06E4B05221A70EBE06C4B1B78022B00D1C0E0614B1B78DBB21A000123134000D1B8E05D4B1B78DBB21A00042313400BD0624B03221A70584B1B7845
:40128000DBB204229343DAB2554B1A70A5E0544B1B78DBB21A00082313400BD0584B05221A704F4B1B78DBB208229343DAB24C4B1A7092E0524B1B78032B00D08DE0504BD5
:4012C00005221A70554B1B78002B00D085E00120FFF78CFC031E00D07FE0494B03221A707BE03B681B881800FFF7C6FE9BE0494A3B681000190002231A0001F052FD414B20
:4013000000221A70464B00221A70FFF77FFE8AE0FFF704FE87E03B685B88162B05D81E23FB183A6852881A8003E01E23FB1817221A801E23FB1819883B681A8800231204FD
:40134000120C1B0C1B04134318000EF07DFD6AE03B68180000F086F865E03B68180000F095FA60E000F0ECFD5DE03B68180000F0C5FC58E03B68180000F032FE53E03B6886
:401380001800FFF7ABFD4EE03B681800FFF77AFD3B681800FFF7AAFD114B1B78DBB21A00012313403ED13B6818680EF0E7F939E03B681800FFF7A2FD35E03B681800FFF77D
:4013C000A5FD30E03B681800FFF780FD2BE0C04629E0C04627E0C04625E0C04623E0C04648210020C05C0100CC0B00207CF1FF0F7DF1FF0F7BF1FF0F78F1FF0FC40B002058
:4014000020210020302100209C0F0020A80B0020DC0B0020342100201E2100204621002021210020C0460D4B1B78DBB21A00112313400ED0094B1B78DBB201229343DAB282
:40144000064B1A70064B1B68FA1D1278396810009847C046BD4608B080BDC046482100200021002080B586B000AF78600023FB60684B1B78012B00D0C7E0674B1B78DBB293
:401480001A000223134000D1BFE00A23FB187A6812891A800A23FB181B88062B05D00A23FB181B88142B00D0A8E00823FB187A6852891A801423FB1800221A808CE07B6886
:4014C0005A681423FB181B88D318FB601323FB1800221A70FB681A88504B1B889A4200D270E0FB681A884D4B5B889A4200D969E00A23FB181B88062B64D11623FB1800228C
:401500001A8055E01623FB181A88454913005B009B185B00CB1804331A88FB689B889A423FD11623FB181A883D4913005B009B185B005B5A002B13D11623FB181A88384993
:4015400013005B009B185B00FA68CB1811000422180001F026FC1323FB1801221A7020E01623FB181B88002B0FD11623FB181B885A1C2B4913005B009B185B00CB180433E9
:401580001A88FB689B889A420BD0264B1B68FA68111D0C22FF32100098471323FB1801221A701623FB181A881623FB1801321A801623FB181B88012B04D81323FB181B78AA
:4015C000002B9FD01423FB181422B9180A22BA18098812888A181A801423FA180823FB1812881B889A4200D269E70B4B1B78DBB201229343DAB2084B1A7006E0094B1B6844
:401600000822FF32002110009847C046BD4606B080BDC046212100204821002024210020D00B00200021002080B582B000AF0200FB1D1A70FB1D1B78002B06D0324B1B783B
:401640000133DAB2304B1A7009E02F4B00221A7005E02D4B1B780133DAB22B4B1A702A4B1B78012B19D8284B1B781900274A0B005B005B185B009A5A254B1B889A42E8D35F
:40168000214B1B781900214A0B005B005B185B009A5A1F4B5B889A42DBD81B4B1B78012B28D8194B1B781A0013005B009B185B00164A9918174B1A785B781B021A4300237C
:4016C0001204120C1B0C1B04134318000EF090F8031E15D0104B1B68842252000021100098470E4B1B78DBB202229343DAB20B4B1A7005E00A4B03221A70002000F048FA76
:40170000C046BD4602B080BD47210020D00B0020242100203421002000210020482100202121002080B582B000AF78607B68DB884F4A934200D184E04D4A93420BDC4D4A67
:40174000934224D04B4A934200DD68E0A822920193420AD087E0484A93423CD0474A93424BD0474A934224D07DE0464B1B88002B04D17B689A88434B1A8074E0424B1B682E
:401780007A68911D86225200100098476BE03D4B5B88002B04D17B689A883A4B5A8062E0394B1B687A68911D862252001000984759E0344B1B89002B04D17B689A88314BF7
:4017C0001A8150E0304B1B687A68911D862252001000984747E02B4B5B89002B04D17B689A88284B5A813EE0274B1B687A68911D862252001000984735E0224B9B89002B76
:4018000004D17B689A881F4B9A812CE01E4B1B687A68911D862252001000984723E0194B9B88002B04D17B689A88164B9A801AE0154B1B687A68911D862252001000984778
:4018400011E0104BDB88002B04D17B689A880D4BDA8007E00C4B1B687A68911D8622520010009847C046C046BD4602B080BDC046032A0000012A0000A62A0000C92A0000A9
:40188000042A0000382100200021002080B592B000AF7860B74B1B78DBB21A000223134000D163E13E23FB187A6812891A803C23FB187A6852891A807B685B683B64AE4BE7
:4018C0001B78032B00D09AE04623FB1800221A808BE03B6C1800FFF775FA03001A002423FB181A803B6C02333B643B6C1A782423FB189A703B6C01333B643B6C1800FFF7BE
:4019000061FA03001A002423FB189A803B6C02333B643E23FB181B88152B1FD12423FB1802229A752423FB180622396C9B181022180001F036FA3B6C10333B648F4B1B7831
:4019400019008F4A0B005B005B185B00D31804331B881A008B4B9A4234D034E03E23FB181B88072B2FD12423FB1801229A753B6C1800FFF727FA03001A002423FB18DA801C
:401980003B6C02333B647D4B1B7819007C4A0B005B005B185B00D31804331B88C0225201934203D0784A934206D00CE02423FB181800FFF7B7FE06E02423FB181800FFF7D8
:4019C00015FA00E0C0466B4B1B78DBB201229343DAB2684B1A704623FB184622B9183E22BA18098812888A181A804623FA183C23FB1812881B889A4200D26AE7B6E05E4BA4
:401A00001B78022B00D0B1E04623FB1800221A80A3E03B6C1800FFF7D5F903001A000C23FB181A803B6C02333B643B6C1800FFF7C9F903001A000C23FB185A803B6C023347
:401A40003B643B6C1800FFF7BDF903001A000C23FB189A803B6C02333B643E23FB181B88062B04D10C23FB1802229A7563E03E23FB181B88082B5ED10C23FB1801229A75A6
:401A80003B6C1800FFF79EF903001A000C23FB18DA803B6C02333B644423FB1800221A8033E04423FB181A88354913005B009B185B00CB1804331A880C23FB18DB889A420A
:401AC0001CD14423FB181A882D4913005B009B185B005B5A002B11D14423FB181A88284913005B009B185B000C22BA180220CB1811180422180001F054F90BE04423FB1811
:401B00001A884423FB1801321A804423FB181B88012BC6D9194B1B781900194A0B005B005B185B00D31804331B881A00174B9A4200D000E0C0460F4B1B78DBB201229343E7
:401B4000DAB20C4B1A704623FB184622B9183E22BA18098812888A181A804623FA183C23FB1812881B889A4200D252E7C046BD4612B080BD4821002021210020472100201E
:401B8000D00B0020FEFF0000011800001218000080B582B000AF0200FB1D1A70FB1D1B78002B06D0354B1B780133DAB2334B1A7009E0324B00221A7005E0304B1B78013370
:401BC000DAB22E4B1A702D4B1B78012B19D82B4B1B7819002A4A0B005B005B185B009A5A284B1B889A42E8D3244B1B781900244A0B005B005B185B009A5A224B5B889A42E6
:401C0000DBD81E4B1B78012B2DD81C4B1B781A001B4913005B009B185B001B4A585ACB185B881B04034319001378527812021A4300231204120C1B0C1B04134318000DF0A7
:401C4000BBFD031E15D0114B1B680A22FF320021100098470E4B1B78DBB202229343DAB20B4B1A7005E00B4B04221A70002000F0D7F8C046BD4602B080BDC046472100202B
:401C8000D00B0020242100203421002000210020482100202121002080B582B000AF3B0000221A803B0000225A80114B1B78002B09D1104B5B8801339AB23B001A800E4BFF
:401CC0001A893B005A803B1D3A0012681A603A1D002311880904090C1B0C1B040B43528812041B041B0C13431800BD4602B080BD4721002028210020D00B002080B58AB0EC
:401D000000AF78600823FB1800225A80414B1B78042B00D079E0404B1B78DBB21A000223134000D171E01E23FB187A6812891A807B681A7B0823FB181A750823FB187A683C
:401D400012881A800823FB181B7D012B04D12623FB1804221A8003E02623FB1812221A807B685B683B622423FB1800221A803CE03B6A1800FFF726F803001A000823FB188E
:401D80005A803B6A02333B620823FB181B7D022B0CD10823FB183A6A043311001022180000F0FFFF3B6A10333B6214E03B6A1800FFF708F803001A000823FB189A803B6A4A
:401DC00002333B62154B1B78002B04D10823FB181800FFF733F82423FB182422B9182622BA18098812888A181A802423FA181E23FB1812881B889A42BAD3074B1B78DBB2F0
:401E000001229343DAB2044B1A70C046BD460AB080BDC04621210020482100204721002080B584B000AF0200FB1D1A700C23FB1800221A800C23FB1800225A80FB1D1B7828
:401E4000002B06D0384B1B780133DAB2364B1A7005E0354B00221A70FB1D01221A70FFF71BFF03001A000C23FB181A600C23FB181A882E4B1B889A4215D90C23FB181A8813
:401E80002A4B5B889A420ED80C23FB185A88274B1B889A4207D30C23FB181A880C23FB185B889A4203D9204B1B78002BC6D01E4B1B78002B21D10C23F9181D4B1A785B7873
:401EC0001B021A4300231204120C1B0C1B04134318000DF05BFC031E21D0164B1B6885225200002110009847134B1B78DBB202229343DAB2104B1A7011E0104B05221A7024
:401F00000C4B1B681222FF320021100098470A4B1B78DBB202229343DAB2074B1A70C046BD4604B080BDC046472100202421002034210020002100204821002021210020ED
:401F400080B500AF244B1B78DBB21A00022313403FD0224B1B78022B17D002DC012B05D037E0032B1DD0042B27D032E01B4B02221A700020FFF758FB174B1B78DBB20122CE
:401F80009343DAB2144B1A7023E00120FFF74CFB114B1B78DBB201229343DAB20E4B1A7017E00120FFF7F4FD0B4B1B78DBB201229343DAB2084B1A700BE00120FFF730FF89
:401FC000054B1B78DBB201229343DAB2024B1A70C046C046BD4680BD482100202121002080B582B000AF7860084B1B78DBB21A000223134005D07B689B790A2B01D1FFF722
:402000009FFFC046BD4602B080BDC0464821002080B500AF00F06CF8C046BD4680BDC04680B500AF064B064A1268802109060A431A6000F019F800F01DF8C046BD4680BD35
:402040000000244080B500AF064B1B78002B04D1FFF7DEFF034B01221A70FFF7E1FFC046BD4680BDA40F002080B500AFC046BD4680BDC04680B500AF00F09AF8C046BD46D8
:4020800080BDC04680B582B000AF00237B60044B1B687B607B681800BD4602B080BDC0464003244080B582B000AF054B1B681F2213407B607B681800BD4602B080BDC04637
:4020C0000803244080B582B000AF7860C046064B1B681F221340082BF9D0044B7A681A60C046BD4602B080BD080224404002244080B500AF1B4B1C4A1A601C4B00221A6035
:402100001B4B01221A601B4B1B4A1A601B4B07221A601B4B00221A601A4B01221A601A4B154A1A60194B00221A60194B04221A60184B00221A60184B00221A60174B002286
:402140001A60174B00221A60164B00221A60164B00221A60144B1B689AB2144B1A80C046BD4680BD000024400F000002400024404800244000032440070000800403244062
:402180001003244044002440000224400402244050002440880E2440C80E2440480F2440080F2440C80F2440880F2440A60F002080B500AF074B074A126807490A409021BB
:4021C00009040A431A60054B054A12881A60C046BD4680BD00010240FFFF0FFF880F2440A60F002080B582B000AF00237B60FFF759FF031E03D0FFF745FF03007B60084B32
:402200001A68D8239B00134005D000237B60044BD82292001A607B681800BD4602B080BDC00F244080B584B000AF0200FB1D1A700F4B1B68DAB20F23FB1840218A431A70C9
:40224000FB1D1B789B01DBB240221340D9B20F23FB180F22BA1812780A431A70044B0F22BA1812781A60C046BD4604B080BDC0460002044080B584B000AF0200FB1D1A7049
:402280000D4B1B68DAB20F23FB187F210A401A70FB1D1B78DB01D9B20F23FB180F22BA1812780A431A70044B0F22BA1812781A60C046BD4604B080BD0003044080B584B043
:4022C00000AF0200FB1D1A700F4B1B68DAB20F23FB1840218A431A70FB1D1B789B01DBB240221340D9B20F23FB180F22BA1812780A431A70044B0F22BA1812781A60C0460C
:40230000BD4604B080BDC0460003044090B58BB000AF78602723FC1800F05BF903002370194B1A680C23FB181A60184B1A680C23FB185A607B68033B154AD35C1A000C23A2
:40234000FB189A60134B1A680C23FB18DA601C23FB18114A1A600C23FA181C23FB185A600E4B1C22BA181A600D4B0E4A1A600B4B1B682723FB181B78180000F02EF9C04675
:40238000BD460BB090BDC04608010B4000010B40885E010030001040B6EA000008001040040010401700008080B584B000AF78600023FB60154B154A126801210A431A6092
:4023C000134B144A1A60144B134A1268802109020A431A607B68002B12D01023FB600CE0012000F05DF800F019F8031E02D00023FB6005E07B68013B7B607B68002BEFD10F
:40240000FB681800BD4604B080BDC04660F02E4078002E400220000010002E4080B582B000AF054B1B68012213407B607B681800BD4602B080BDC0460C002E4080B582B0D5
:4024400000AF0200FB1D1A7001BEC046BD4602B080BDC04680B582B000AF786009E00D4B1B68180000F0ACF87B680B4A944663447B607A6880231B029A42F0D8074B1B683F
:402480007A685343180000F09BF8C046BD4602B080BDC046F00B00200080FFFFE80B002080B582B000AF0200BB1D1A80BB1D1B88044A12785343180000F082F8C046BD4661
:4024C00002B080BDEC0B002080B500AF0F4B0F4A126801218A431A600C4B0C4A126802218A431A600A4B0A4A126830218A4310210A431A60064B064A126807218A43012160
:402500000A431A60C046BD4680BDC04600F02E4000FF2E4080B500AF0F4B0F4A126802218A431A600D4B0D4A126807218A4302210A431A60094B094A126830218A432021BA
:402540000A431A60044B044A126801210A431A60C046BD4680BDC04600F02E4000FF2E4080B500AFFFF7B0FF044B044A1268802109060A431A60C046BD4680BD00F02E40C2
:4025800080B584B000AF78600C4B1B6801221340FB607B68002B02D0012B03D005E0FFF793FF06E0FFF7B6FF03E00020FFF746FFC046FB681800BD4604B080BD00F02E4092
:4025C0000230800803D00138FDD1C046C046C0467047EFF3108072B6704780F31088704780B582B000AF78600A00BB1C1A80BB1C1A887B681A60C046BD4602B080BDC0462E
:4026000080B582B000AF78600A00BB1C1A80BB1C1A887B681A60C046BD4602B080BDC04680B584B000AF494B1B78DBB21B02484A1278D2B21343FB60464B1B78DBB21B0255
:40264000454A1278D2B21343BB60BB68434A934207D1FB68072B04D1414BBB600423FB6009E0BA68D4231B019A4204D1FB68042B01D13B4BBB603B4BBA681A603A4BFA687F
:402680001A603A4B1B78DBB21B02394A1278D2B21343FB60FA6880239B019A4202D0FB68002B01D1334BFB60334BFA681A60334B1B78DBB21B02324A1278D2B21343FB60C4
:4026C000FB68304A934206D0FB682F4A934202D0FB68052B01D12D4BFB602D4BFA681A602C4B1B681B097B602B4B1B68AA2B29D17B68012B26D9214B1B78DBB20E2B21D1BD
:40270000264B1B78DBB29BB21B0299B2244B1B78DBB29AB2BB1C0A431A80224BBA1C12881A60214B1B78DBB29BB21B0299B21F4B1B78DBB29AB23B000A431A801C4B3A0089
:4027400012881A60C046BD4604B080BDD9F0FF0FD8F0FF0FDFF0FF0FDEF0FF0F580B0000580D00006C002E4074002E40DBF0FF0FDAF0FF0F0220000078002E40DDF0FF0FCD
:40278000DCF0FF0F0F0F000005050000050F000080002E40EC0F00F0E00F00F06DF2FF0F6CF2FF0F84002E406FF2FF0F6EF2FF0F94002E4080B582B000AF0200BB1D1A8017
:4027C000BB1D1B881800FFF76BFEC046BD4602B080BDC04680B582B000AF78607B681800FFF738FEC046BD4602B080BD80B500AF00F0ECF8C046BD4680BDC04680B500AFF4
:4028000000F0F0F8C046BD4680BDC04680B500AF00F0E8F8044B180000F0A2F8032000F0ADF8C046BD4680BD312A000080B500AF034B180000F080F8C046BD4680BDC04678
:40284000312A000080B500AF0223FF331800BD4680BDC04680B582B000AF78602B231800BD4602B080BDC04680B582B000AF78602B231800BD4602B080BDC04680B582B065
:4028800000AF78602B231800BD4602B080BDC04680B582B000AF78602B231800BD4602B080BDC04680B582B000AF78602B231800BD4602B080BDC04680B582B000AF7860AD
:4028C0002B231800BD4602B080BDC04680B582B000AF78602B231800BD4602B080BDC04680B582B000AF78602B231800BD4602B080BDC04680B500AF2B231800BD4680BD58
:4029000080B582B000AF0200FB1D1A702B231800BD4602B080BDC04680B582B000AF786039602B231800BD4602B080BD80B500AFC046BD4680BDC04680B582B000AF786082
:4029400000F050F87B68180000F00AF8032000F015F800F03BF8C046BD4602B080BDC04680B582B000AF7860034B7A681A67C046BD4602B080BDC0460000002090B585B0BA
:4029800000AF0200FB1D1A700623FB600B23FC18FFF71FFE030023700B4B0B4A1268C0218A431100FA1D1078FA68904002000A431A600B23FB181B781800FFF70EFEC046E3
:4029C000BD4605B090BDC0460CE400E080B500AF034B802252011A60C046BD4680BDC04600E100E080B500AF034B802252011A60C046BD4680BDC04680E100E090B583B0A8
:402A000000AFFC1DFFF7E5FD03002370074B074A126804218A431A6030BFFB1D1B781800FFF7DBFDC046BD4603B090BD10ED00E080B500AF12F0D8FFC046BD4680BDC04668
:402A4000002243088B4274D303098B425FD3030A8B4244D3030B8B4228D3030C8B420DD3FF22090212BA030C8B4202D31212090265D0030B8B4219D300E0090AC30B8B42E5
:402A800001D3CB03C01A5241830B8B4201D38B03C01A5241430B8B4201D34B03C01A5241030B8B4201D30B03C01A5241C30A8B4201D3CB02C01A5241830A8B4201D38B02A6
:402AC000C01A5241430A8B4201D34B02C01A5241030A8B4201D30B02C01A5241CDD2C3098B4201D3CB01C01A524183098B4201D38B01C01A524143098B4201D34B01C01A1B
:402B0000524103098B4201D30B01C01A5241C3088B4201D3CB00C01A524183088B4201D38B00C01A524143088B4201D34B00C01A5241411A00D20146524110467047FFE776
:402B400001B5002000F0F0F802BDC0460029F7D076E7704703460B437FD4002243088B4274D303098B425FD3030A8B4244D3030B8B4228D3030C8B420DD3FF22090212BAED
:402B8000030C8B4202D31212090265D0030B8B4219D300E0090AC30B8B4201D3CB03C01A5241830B8B4201D38B03C01A5241430B8B4201D34B03C01A5241030B8B4201D319
:402BC0000B03C01A5241C30A8B4201D3CB02C01A5241830A8B4201D38B02C01A5241430A8B4201D34B02C01A5241030A8B4201D30B02C01A5241CDD2C3098B4201D3CB01E2
:402C0000C01A524183098B4201D38B01C01A524143098B4201D34B01C01A524103098B4201D30B01C01A5241C3088B4201D3CB00C01A524183088B4201D38B00C01A52416D
:402C400043088B4201D34B00C01A5241411A00D201465241104670475DE0CA0F00D04942031000D34042534000229C4603098B422DD3030A8B4212D3FC22890112BA030A13
:402C80008B420CD3890192118B4208D3890192118B4204D389013AD0921100E08909C3098B4201D3CB01C01A524183098B4201D38B01C01A524143098B4201D34B01C01A3A
:402CC000524103098B4201D30B01C01A5241C3088B4201D3CB00C01A524183088B4201D38B00C01A5241D9D243088B4201D34B00C01A5241411A00D20146634652415B10E9
:402D0000104601D34042002B00D54942704763465B1000D3404201B5002000F005F802BD0029F8D016E770477047C046014B18687047C046740F00200E4B70B500251E006B
:402D40000D4CE41AA410A54204D0AB00F35898470135F8E713F0FCF8084B00251E00084CE41AA410A54204D0AB00F35898470135F8E770BD5C5F01005C5F01005C5F01000A
:402D8000645F010030B50024A24208D0035D651C0C5DA34201D0181B02E02C00F4E7002030BD002310B59A4203D0CC5CC4540133F9E710BD03008218934202D019700133A8
:402DC000FAE770470FB40B4B13B51C68002C05D0A369002B02D1200000F050FA05AB049AA1682000019300F015FC16BC08BC04B01847C046740F0020084B70B51C68050012
:402E0000002C05D0A369002B02D1200000F036FA2900A268200000F0A9FE70BD740F002070B505000E00002804D08369002B01D100F024FAAB69AC68002B02D1280000F024
:402E40001DFA254B9C4201D16C6808E0234B9C4201D1AC6803E0224B9C4200D1EC68A3891B0702D52369002B11D12100280000F09BF800280BD0012040422BE0013B01362C
:402E8000A360002B08DB23685A1C226019703178A3680029F2D10BE0A269934201DB0A29F1D12200280000F027F8431CEFD1E2E7013BA360002B08DA22000A31280000F0B7
:402EC0001BF8431CD7D00A2004E00A2023685A1C2260187070BDC046BC5E0100DC5E0100FC5E010010B5034B01001868FFF798FF10BDC046740F0020F8B505000F00140026
:402F0000002804D08369002B01D100F0B7F9234B9C4201D16C6808E0214B9C4201D1AC6803E0204B9C4200D1EC68A369A360A3891B070AD52369002B07D023682269FEB221
:402F4000981A636998420FDB08E02100280000F02BF80028F1D0012040421DE02100280000F01EF90028F6D1A3680130013BA36023685A1C22601F706369984205D0A389CF
:402F80003000DB0708D50A2E06D12100280000F007F90028DFD13000F8BDC046BC5E0100DC5E0100FC5E0100364B70B51D6806000C00002D05D0AB69002B02D1280000F0FD
:402FC0005DF9314B9C4201D16C6808E02F4B9C4201D1AC6803E02E4B9C4200D1EC680C22A35E9AB2110723D4D10607D409220120326037321343A381404242E0530713D513
:40300000616B002908D023004433994202D0300000F02CFA002363632422A3899343A38100236360236923600822A3891343A3812369002B0BD1A0238022A1899B009200CD
:403040000B40934203D02100300000F0D1F90123A289134005D00023A36063695B42A36103E0920700D46369A36000202369834207D10C22A35E1A0603D540221343A381DD
:40308000013870BD740F0020BC5E0100DC5E0100FC5E0100F7B58A8905000C0013075AD44B68002B02DC0B6C002B19DDE76A002F16D000232E682B6080235B011A4001D016
:4030C000606D14E00123216A2800B847431C0ED12B68002B0BD01D2B01D0162B02D12E6000205AE04022A3891343A38155E0A3895B0706D56368C01A636B002B01D0236CA9
:40310000C01A00230200216A2800E76AB847A389421C06D129681D293AD8204ACA40D20736D50022626022692260DB0405D5431C02D12B68002B00D16065616B2E60002938
:40314000CED023004433994202D0280000F08EF90020606321E00F69002FC1D00B680F60DB1B01930023920700D14B69A36003E0019B3F181B1A0193019B002BB0DD019B70
:403180003A00216A2800A66AB0470028F0DCA389402201201343A3814042FEBD010040200B6970B505000C00002B01D100201CE0002804D08369002B01D100F05FF80B4B1B
:4031C0009C4201D16C6808E0094B9C4201D1AC6803E0084B9C4200D1EC680C22A35E002BE4D021002800FFF755FF70BDBC5E0100DC5E0100FC5E010010B5024900F0B0F8EB
:4032000010BDC046A1310000002310B5040003604360836081814366C281036143618361190008225C30FFF7C5FD054B24626362044BA362044BE362044B236310BDC04688
:40324000FD3B0000253C00005D3C0000893C000070B568254B1E5D430E002900743100F051F9041E08D000212A00016046600C30A0606832FFF79EFD200070BD836913B5D2
:403280000400002B28D18364C3640365134B144A1B6882620193984201D101238361200000F020F86060200000F01CF8A060200000F018F80022E06004216068FFF7A4FFF1
:4032C00001220921A068FFF79FFF02221221E068FFF79AFF0123A36113BDC046B85E0100F9310000F8B51D4B06001D68AB69002B02D12800FFF7C2FF4835AC686B68013B47
:4033000005D40C22A75E002F10D06834F7E72B68002B01D02D68F0E704213000FFF798FF28600028F6D10C23336016E0012320005B42E3810233A38167662760A76067602C
:4033400027616761A7615C3008223900FFF732FD20006763A763A764E764F8BDB85E0100F7B504000700002601914834002C16D06368A5680093009B013B00930DD4AB89E4
:40338000012B08D90E22AB5E013304D029003800019B984706436835EDE72468E6E73000FEBD000070B50E001D000E23C95E90B01400002906DA00232B60B3891B060FD5F1
:4033C00040230FE001AA00F08BFC0028F3DBF023029A1B021340054A9B185A4253412B608023DB000020236010B070BD00E0FFFFF7B502268B8905000C00334210D101ABA0
:403400006A46FFF7CFFF00990700280000F07AF800280CD10C22A35E9A0523D43343A3812300473323602361012363611AE080220D4BAB62A38920601343A381009B2061BB
:403440006361019B002B0AD00E23E15E280000F059FC002803D00122A3891343A381A3891F43A781F7BDC046F931000070B50500002944D00C1F2368002B00DAE418280066
:4034800000F071FC1E4A13681100002B02D16360146031E0A3420DD92268A018834203D118685B688218226063600C6024E0A24203D813005A68002AF9D11E689819A0429C
:4034C0000BD12168711858181960824214D110685268411819605A600EE0A04202D90C232B6009E021686018824203D1106852684118216062605C60280000F035FC70BDA7
:40350000D0200020032370B5CD1C9D43083506000C2D01D20C2501E0002D01DBA94202D90C23336048E0300000F01DFC234B1C681A002100002913D00B685B1B0DD40B2BDB
:4035400002D90B60CC181EE08C4202D1636813601AE04B6863600C0016E00C004968E9E7174C2368002B03D1300000F035FB20602900300000F030FB431C18D00323C41CC7
:403580009C43A0420DD12560300000F0EDFB200007220B30231D9043C31A0ED05A42E2500BE0211A300000F017FB431CEBD10C233000336000F0D8FB002070BDD02000203A
:4035C000CC200020936810B5013B9360002B05DA9469A34208DBCBB20A2B05D01368581C10601970C8B201E0FFF786FC10BDF8B506000F001400D518AC4208D021783A0096
:403600003000FFF7DFFF0134431CF5D100E00020F8BD0000F0B59FB006000F0002920593002804D08369002B01D1FFF727FE7F4B9F4201D1776808E07D4B9F4201D1B76864
:4036400003E07C4B9F4200D1F768BB891B070AD53B69002B07D0002306AD6B6120336B761033AB763DE039003000FFF79DFC0028F1D001204042D6E0059A111D1268059136
:40368000002A00DA7FE00992013423782E2B00D18DE021780322684800F05AFB002807D0654B2A68C01A4023834013432B6001342178631C062261480293297600F048FB4B
:4036C000002800D19DE05E4B002B00D090E00722059B07339343083305936B69039A9B186B61029C2378002B04D1029BE31A049312D003E0252BF8D00134F3E7049B029A13
:4037000039003000FFF773FF431C00D186E06A69049B944663446B612378002B7ED00122002352426A6002A95432521801342B60EB60AB601370AB6521780522414800F02E
:4037400007FB002808D03F4B2A68C01A0123834013432B600134EFE72B68DA0604D55322202102A8121811701A0704D553222B2102A81218117022782A2A00D17CE7099B51
:4037800000200A2105E05242EA60022213432B607AE72278303A092A04D84B4301349B180120F6E7002800D16FE709936DE763782A2B0AD1059B02341A1D1B680592002B72
:4037C00001DA01235B42079363E700230A201A0001346B6021783039092904D84243013452180123F6E7002B00D152E7079250E705AB00933A00144B2900300000E000BFD4
:4038000007E005AB00933A000F4B2900300000F08BF80390039B013300D05EE7BB895B0600D526E70B981FB0F0BDC046BC5E0100DC5E0100FC5E0100225F0100265F01001F
:40384000000000001C5F0100EF350000F7B5170001938A680B6900900C00934200DA130022003B6043321278002A01D001333B6023689B0602D53B6802333B6006252368DB
:403880001D401ED0230043331B785A1E9341226892061CD53020E1184331087021005A1C45310978A2184332023311700FE022000123193201990098089EB047431C0ED0FE
:4038C0000135E3683A689B1A9D42F0DBDAE72200019943320098089DA847431C02D10120404220E006232068E1683A6803400025042B03D18D1AEB43DB171D40A368226992
:40390000934201DD9B1AED180027BD420AD0220001231A3201990098089EB047431CDED00137F2E70020FEBDF0B58BB006920A0043320793059004920A7E0C00109B6E2A2D
:4039400000D1ABE011D8632A22D009D8002A00D1B5E0582A00D0C5E045310A70814A4FE0642A1DD0692A1BD0BCE0732A00D1AAE009D86F2A29D0702A00D0B3E02022096881
:403980000A43226037E0752A1FD0782A33D0A9E00E001A684236111D196013683370A4E021681A68080606D4490604D5111D19600023D55E02E0111D19601568002D3BDAB4
:4039C0002D23049A6D42137036E021681A68080606D4490604D51568111D1960ADB202E0111D196015685F4B227E039308276F2A1DD00A271BE022007821453211705A4AD5
:403A000019680392081D226818600D68100602D4500600D5ADB2D30702D520231A4322601027002D03D1202322689A4322602300002243331A7002E00A274A4B03936368D9
:403A4000A360002B09DB0422216891432160002D05D1049E002B11D07BE0002D79D0049E28003900FFF772F8039B013E5B5C280033703900FEF7E4FF051EF1D1082F09D1E5
:403A80002368DB0706D563682269934202DC3023013E3370049B9B1B23612BE009681A68080607D4490605D5111D19601368A28A1A8004E0111D1960136862691A60002341
:403AC000049E236116E01A68111D1960166800216268300000F03CF9002801D0801B6060636803E0260042363270012323610023049A1370079B09AA00932100069B05984E
:403B0000FFF7A4FE431C02D10120404227E02369320006990598079DA847431CF4D0236800259B070FD4099BE068984217DA180015E022000123193206990598079EB047FF
:403B4000431CE1D00135E368099A9B1A9D42F0DBE9E72600039B42361B7833708EE70BB0F0BDC0462D5F01003E5F010070B506000D001400002804D08369002B01D1FFF73B
:403B80007DFB124B9C4201D1746808E0104B9C4201D1B46803E00F4B9C4200D1F468A368013BA360002B05DAA269934208DBEBB20A2B05D02368E8B25A1C22601D7004E001
:403BC000220029003000FFF797F970BDBC5E0100DC5E0100FC5E0100002370B5064C050008002360FCF766FE431C03D12368002B00D02B6070BDC0464C21002070B50C0030
:403C00000E25495F00F0B2F8002803DB636D1B18636503E0A289024B1340A38170BDC046FFEFFFFFF8B51F008B8905000C001600DB0505D50E23C95E0022022300F074F891
:403C4000A289054B28001340A38132000E23E15E3B0000F01FF8F8BDFFEFFFFF70B50C000E25495F00F060F8A389421C03D1054A1340A38104E0802252011343A381606515
:403C800070BDC046FFEFFFFF10B50E23C95E00F015F810BD70B50500080011000022064C22601A00FCF7BCFD431C03D12368002B00D02B6070BDC0464C210020002370B5B3
:403CC000064C05000800236000F064F8431C03D12368002B00D02B6070BDC0464C210020002370B5064C050008001100236000F059F8431C03D12368002B00D02B6070BDA5
:403D00004C210020002370B5064C05000800236000F050F8431C03D12368002B00D02B6070BDC0464C21002070B50500080011000022064C22601A0000F044F8431C03D1DE
:403D40002368002B00D02B6070BDC0464C210020C9B28218904204D003788B4202D00130F8E70020704770477047000070B50500080011000022064C22601A0000F02AF8E3
:403D8000431C03D12368002B00D02B6070BDC0464C21002058220120014B40421A6070474C21002058220120014B40421A6070474C2100205822024B00201A607047C04693
:403DC0004C21002058220120014B40421A6070474C21002058220120014B40421A6070474C210020134A1088810703D08107890F401A001D11791030484381B25088820718
:403E000003D08207920F801A001D800040180A494030098980B2CA0701D0503080B2890706D504495422091F09785143081880B270470000FE0B0020B40F002010B501F0E5
:403E4000E9FE10BD10B500F055FA10BD10B50749044609780220002907D1204601F02AFF002802D120460AF07DFE10BD8E0D002070B504460120002C12D02368002B0FD0A9
:403E8000616800290CD0074D06222889208118462968FEF786FF6968606809780170002070BD0000B40F0020FFB585B0002768460E9D07734F481C460078002802D00820CC
:403EC00009B0F0BD10990F9801900095029105A807C800F001F90028F2D16946264603AB84460873002C19D0002115E08A00B75A082F09D990198078002805D0083FB75227
:403F00001878401C187005E0002914D00027B75290198770491CC9B2A942E7D360460028CED10F98002809D0109901F023FA002804D00120C4E701208446EFE701F06AFE18
:403F40002D480021416081600599016021888180022D07D3A1798171A17AC171A1890181218A418100211EE0481C19E082008B00A75AE65ABE46BE4211D26F463E80B446E7
:403F80001E190296B678BE7001967646E6521719029EBB78B3706646A652019EBE70401CA842E3D3491CA942DED3134822460C3000906846037B0799069800F015F9002898
:403FC000B8D168460B4C007B60700B480C3001F051FE0028AED1084907480C3107F062FD0028A7D107F07CFD0028A3D10121217066E70000F80B0020A80F0020F8B50546A1
:4040000033480E460078002802D002242046F8BD002E5BD000242F49002D16D02A89D0070DD02868002808D003881B3BE12B04D24088FB2801D81B2801D2012409E09007BD
:4040400007D56868002804D1F7E70020088108604860002CDAD11F482F8907811C481B21801D018041800421017119490020891C0870F80705D016480622801D2968FEF750
:4040800090FE1449B80703D56A681148127882700F480D46801D0860001F486001F030FE0B48801D01F01EFE28890DF0ADFE28890DF0E2FF03461033FFF794FE1F21C01831
:4040C000890140180249308088809FE701249DE7F80B0020B40F0020FFB58446384F1C460020BB883F78054602460646002F11D100290ED0029999420BD36146002908D032
:40410000002C06D00A99002906D02E4B0B99994202D2012004B0F0BD002144E0AB001F19BF78002F3BD0E35A002B38D07B43591889B22B0000F04AF8050410161C2531001C
:40414000A7782388BC46FF27233BEB37BB4222D26346032B1FD322E0A388002B1FD0302B19D31CE02389002B19D0282B13D316E0A289002A13D01346134F233BBB420AD270
:404180000DE0268A002A0AD033460F4F233BBB4201D2964203D901200EE0002001E000280AD16D1CEDB2099B9D42B7D31C2463435B1802998B42ACD89642AAD8AAE700002D
:4041C000F80B002079020000BAFF000030B47446641E2578641CAB4200D21D46635D5B00E31830BC18470000FFB583B0002469460C801F4606468C80002806D005980028E2
:4042000003D004983043800701D0012466E0002FFBD03449049809888842F6D3FEF706FBFEF7ECFA00F012FC002855D100F062FD002851D12C49084601F0D0F805042D0C2E
:404240004AD12A480499066081800021C18007810C98007AC00704D0684601F0F4FC040007D10C98007A800703D501A801F0F4FC0446BF1DFEB2002C20D13146059800F0A1
:404280005DF804001AD10DF005FF040016D16A461088928808368518144AF1B29088D288AEB29319984207D3401B801A80B201F085FB050007D000E0FF25012400F05EFA79
:4042C000002D04D008E0F8B200F01CF9F6E700F081FA07490120087000F0CAFB204607B0F0BD0000FC0B002029440000C00F0020040C002010B503480078012801D101F04F
:40430000FFF910BD040C002070B5084B0446DA889E8800205518B54206D81D68AA182260DA885118D98070BD032070BDC00F00200148008970470000C00F0020F0B587B02F
:4043400007460D4600208900009006916846FFF7DBFF844600285DD1304800990160002117E02E4B88001A680629115406D22C4C0419667882185670628805E0C419203CDB
:40438000A67A8218567022891B68C018491C4280C9B2A942E5D300242DE0601CC2B2059025E01E4FA30039689600581840887118039604904E88B04217D938466F46FE80D9
:4043C000B6464F786E4677710297049F4F800168039F5E18767879184E700168764659184E800068029F18184770521CD2B2AA42D7D30598C4B2AC42CFD36046002809D16E
:4044000068460699FFF780FF8446002802D1054900980860604607B0F0BD0000080C0020885F01000C0C00207047000010B5002809D005494A68002A05D0011F08788000AD
:40444000105801F069FA10BD080C002010B50446FFF76EFFC0B2801DA0420CD307484068002808D0A100405801F0C8F9002801D00470001D10BD002010BD0000080C0020E3
:40448000F8B516460D460446FFF752FFC0B2801DA04203D20020C0430090F8BDB2B2E9B2684601F0D1F90099481C03D0024AA000526811500098F8BD080C0020F8B5074627
:4044C000FFF736FF801DC6B20A49002005460C680DE06178002907D06188B94202D32078FFF7B4FF002804D1241D6D1CEDB2B542EFD3F8BD080C002010B5002801D0FFF7CE
:4045000095FF10BD70B506460948002504680BE06178002905D062882078121D0023FFF7AFFF241D6D1CEDB2B542F1D370BD0000080C0020FFB581B00A9F16000C4620D022
:4045400000F0F2F8054604281BD0002F0CD03846FFF7B4FF20492A0151184860002810D03A460499FEF71DFC1B4928010E504618778101980570200406D47D20C0004443C4
:4045800004E0FF2005B0F0BD6404640C00F0BAF80746042807D000F04FFAA0420BD800F04BFA201A03E0204600F0AAFA0020F06035720020E6E700F03FFA009000F0B6FA25
:4045C00000980121001B009000F0ECF802493A0151180098C860E6E7CC0F0020F8B5060116483418217A042903D0E068002802D017E00020F8BD00F01FFA054600F096FA30
:4046000000F0A0F804280CD001010C480F18F8680021451900F0C6F80020F860284600F06FFA6068054D002801D0FFF765FF042020720020A8516081E060DAE7CC0F002088
:40464000FEB500266A46304601232549050169180D7A042D02D0C96800291BD000211154401CC0B20428F0D300246846005D002830D01B482101081841894768056802919B
:40468000002101604160042241810272C160002E02D015E01354E3E700F054F804280ED001010F4808180190C6680021304600F079F801980021C160304600F021FA01263B
:4046C000002D07D038460299A847002F02D03846FFF712FF641CE4B2042CC6D3FEBD0000CC0F00200EB5002005216A460090118150810348694600680EF031FB0EBD000090
:40470000100C0020074A0020010189180B7A042B02D0C968002903D0401CC0B20428F3D370470000CC0F00200549002002015218127A042A03D0401CC0B20428F6D3704722
:40474000CC0F002030B50A4B04200A4C00210A011219157A042D06D0D268002A03D09A4201D808461346491CC9B20429EFD330BDFFFF0000CC0F00207047000030B5002099
:40478000074C05460423020111190B72A5504D60401C4D81C0B2CD600428F4D330BD0000CC0F002030B5094C00231A011219157A042D04D0D568002906D02D18D5605B1CE0
:4047C000DBB2042BF1D330BD2D1AF7E7CC0F0020002070471CB5002469460C70142001902346054A05480EF0BFFA04480068401C00D1FF2420461CBD51480000100C00209C
:404800003EB5124A0146FF2000230124126800290DD0012914D0042908D104206946009308814B8110460EF09AFA80B23EBD6846009304814381694610460EF08BFAF4E72A
:4048400068460093048143816946EBE7100C002070B545890468416800890300FFF7B6FC08280509091E22282628002005F0A2FE1EE0022908D0C8B22A4621460CF068FB52
:404880002046FFF739FE13E002202A4621460CF05FFB2946204600F00DF809E000200DF05DFF05E02046FFF7CBFE01E0FEF73EF8002070BD014B0022DB681847140C002044
:4048C00070B5448905680089022803D0032809D0FF2070BD2246094C0023A46829460120A04708E0FFF7AAFA241DA2B200232946022006F08AFF002070BD0000140C002049
:4049000070470000024800214160018041807047140C002070B50C46002186B016460391012802D0022859D116E003A9012006F0C1FF01281BD1039D324621462846FEF7FE
:4049400030FA0095287801900220694608814E816846FFF7B5FF41E0214D002B686809D0049004A9022006F0A5FF01281DD0022006B070BD002812D0298840182146FEF7DC
:4049800010FA28880024801980B228806988091D884206D12C801348FFF792FF03E00320E6E788421AD96C6018E004986860E278A378110219430B4A698000231060E356BA
:4049C0005360032313815181A1788170E178C1706178417021780170042028800020C7E7140C00200C1000203EB515460C46022803D004280CD000203EBD00910190022036
:404A00006946088107484A8100680EF0A8F907E00CF09EFA044B0022DB6829462046984701203EBD100C0020140C0020014AD16090607047140C0020034801688068081A81
:404A40000A214843000970471810002010B5FDF7DDFE482204490548FEF7A3F903490120C870002010BD0000A45F01001C14002010B5FDF7BBFE10BD70B5134C2368002BF0
:404A800008D0207B1149C20705D04008400020738868A08070BD88680B4AA18880B29268814203D90A4D691A091802E0814202D2411A5118A160A080A0689842EAD30EF004
:404AC0006BF900F013F870BD18100020C0102E40FFFF000010B508461946FFF7A7FF10BD704710B5FFF780FF10BD000003480021016041608160C16070470000181000209E
:404B0000024610B5FF20002A0CD0FFF7EFFF064C0321207B0843207310010A21FEF716F82060002010BD00001810002000B504480A21806848430209FFF7D8FF104600BDF2
:404B4000181000200248007B8007C00F704700001810002010B54B490868002802DA4A4B01221A70022290430860484800694549C00B4031096A0246C907C90F0A4259D0CA
:404B8000012000F07FFA3F480E216C30FDF738FD3E4820218430FDF733FD3C4814219C30FDF72EFD3948FF21C131A430FDF728FD3648FF212F31B030FDF722FD3348344944
:404BC000BC30FDF71DFD31483249AC30FDF718FD30492E48491CB430FDF712FD2B482E49B830FDF70DFD29482C49CC30FDF708FD26482B490830FDF703FD24482949A83038
:404C0000FDF7FEFC214828498830FDF7F9FC1F4826498C30FDF7F4FC1C481921C9029030FDF7EEFCFDF7FCFCFDF70CFEC0B2022812D01FE000290BD0002101420AD011488C
:404C400001216030FDF7DCFC0120FDF7C3FD97E70121F2E7FF2010BD15491648FDF7D0FC14481549001DFDF7CBFC124800210830FDF7C6FC54200449C043891C0870002004
:404C800010BD000000F02E40240C002000002E40320300002F3F00003102000010520000EC160000FA12000031D000003AE300009956000080012E40F80F000070B5064651
:404CC000581C80B245086D00002408E0304600F0A9F81055000A1119A41C4870A4B2AC42F4D3D80705D0D0182038D15CC47FD454C17770BD10B5FF2000F0C4F90F49FF202C
:404D000048700E481021801D41800121417001700A490020C91C4870FFF71CFF04000AD100F010F907210648FDF75AFC044807211830FDF755FC204610BD0000240C002055
:404D4000CC112E4070B5002405465B1E0AE0284600F068F8010A161971702D1D1055A41CADB2A4B29C42F2DB9C4203D1284600F059F8105570BD000070B500210A4D5B1E40
:404D80000AE0541864782602545C344346193480001D891C80B289B29942F2DB994202D1515C4019018070BD00102E40F0B50599091FCFB200217E1E0BE0541864782502A5
:404DC000545C2C43164D45192C80001D891C80B289B2B142F1DBFC0712D01C78515C24020F4A0C4381180C809C785D78001D210280B2294384182180001D80B2D9780CE090
:404E000059781A7809021143054A84182180001DD9789B78090280B2194380180180F0BD00102E40014940180088704700102E4010B50B490020487000F084F8002000F0FA
:404E400047F9002000F034F907210648FDF7C8FB044807211830FDF7C3FB002010BD0000270C0020CC112E4010B50B46062812D006DC01280CD0032801D1FFF7D9FF10BDEA
:404E80000A28FCD00B28FAD105480078107010BDFFF730FF10BD1146184600F035F910BD2A0C0020F8B5244DAC6A0127A007234E002816DA307806280ED1286A3843286224
:404EC0001F480069F903084381B21D481030FDF797FB042000F0D6F8174802212830FDF77FFBE00718D000F017FF01280FD1002000F064FF062000F0C5F81049FF20C91E90
:404F000048707078002802D1686B384368630A4801212830FDF764FBE0050BD53078042802D1052000F0AEF80348FF2101312830FDF756FBF8BD000040F02E40270C002097
:404F400000002E4010B503212348FDF759FB0120FDF730FC20483038406A204C80076178800F890001431C480C38FDF749FB6078002808D0401E022181401820FDF7D0FE50
:404F8000C000083800E0B82081B21548FDF738FB1348032109021438FDF732FB10481149B830FDF72DFB612189010F48FDF728FB0D480321001FFDF723FB0C490C48FDF714
:404FC0001FFB0B480B496038FDF71AFB084801218838FDF715FB10BD70F02E402A0C0020D8102E4090890000041E2E40FF0F000058122E40209000000849087806280BD1B8
:4050000048780749002803D1486B400840004863C86A01221043C86270470000270C002040F02E400148007870470000270C002000B50300FFF7CAF8080D050D0B07050784
:40504000090D012000BD032000BD042000BD022000BDFF2000BD0000074A9168D26889B2064B92B2994204D105498A4201D1012100E000210170704780002E4033D0000094
:405080003FE3000010B50446FDF7B8FB072C01D9FF2C01D102480470FDF7A8FB10BD0000270C00200149487070470000240C002010B5064A012805D01921C9021046FDF72E
:4050C0009FFA10BD1D21C902F8E7000090002E4010B50A4A141D012808D009491046FDF78FFA08492046FDF78BFA10BD04491046891CFDF785FA0349491DF3E788002E40BA
:4051000031D000003AE3000070B50C460546FDF799FBC0B202280E49287804D0FF2810D04C280CD810E0FF2809D10A4AD0680004800F032801D0087807E09069000A55383E
:4051400003E00878207070BD4F382070087070BD260C002000002E40F0B50122002834D0002932D00424420600D00524792342065B06D21800D0641C034600221EE00C25F2
:4051800016466E43124D00277519AF72104F002ABB51696007D0661EB24209D10D4E86197606760E05E05E06760E8027BE1B00E080269B198919521C2E81D2B2A242DED3CD
:4051C00003480549006B002288611046F0BD0000A412002079020000300C002018B50020694608700A48006900280ED0132149014018047E684604704F21C900054800F02B
:4052000059F8A04201D0012018BD002018BD0000300C002028100020074900200C2242435218927A012A05D0401CC0B20628F5D30020704701207047A4120020F8B50E002E
:405240000446154609D0194F19497868A04202D94018A04201D38D4201D90120F8BD31462046FDF78FFD00281ED02A4631462046FDF797FDE8B200210C224A43D219138977
:405280005568EE18A6420BD90126641B1B1B9672834209DA1469C01A044AC0B220329676491CC9B20629E7D30020F8BDA412002079020000034610B50020024604E09C5C1D
:4052C0002018521CC0B292B28A42F8D310BD000070B500F05FF8084C064A216907480D46FDF75FFD05492846FFF736FFFFF776FF207070BD79020000300C00202810002024
:40530000002070470020054A002902D0012902D002E0906000E0D06000207047300C002070B5084C154608460549E26889182A46FDF737FDE0684019E06028B270BD000040
:4053400028100020300C00203EB50A226946FFF7E7FF044606480A2200686946FDF712FD002802D00020C0433EBD20463EBD0000340C0020002802D0044A914201D2FF200B
:40538000704703494A6108610020704779020000300C0020024800218160C16070470000300C002070B5074C15460548A26880182A46FFF743FFA0684019A06028B270BDD6
:4053C00028100020300C002010B503490A220968FFF7E8FF10BD0000340C002010B50F4A002313600E4A13600E4B18600E4801600E49012008600E490860000290600E4952
:405400000C4808600D4914300860FF381538506000F0BCF800F0CAF9002010BD640C00204C0C0020780C00207C0C0020680C0020580C0020EC1300205C0C0020700C002087
:40544000014610B50020002910D0094B1A689C685118A14209D25868196080188A0704D08A07920F891A091D196010BD002010BD4C0C0020F8B50024164E671E321F3D468C
:405480003168136806E01422624310328A58521C1BD0641C9C42F6D36A1C14D02C461422544322460C3288500C214843FFF7C8FF3168002808510AD031680020103408518D
:4054C0007068401C70602846F8BD2546E4E73846F8BD00005C0C0020F3B50026F64381B000281BDB1E490968884217D80299002914D01B4F142204463F1D5443254639681C
:4055000010354859401C09D0FDF778F938682F1F4159C359994203DBFDF768F93046FEBD214608310091465801590C20704308180C220299FDF735FC0948761C001D00688A
:40554000C159B14200D100260549009A091D865008684159491C4151FDF748F90020FEBD580C0020002803DB07490968884202D90020C043704704491422091D09685043BB
:405580001030085870470000580C0020F0B500200D4A451E0346171F50600FE014260146714314680E1DA3510C461668083433511668083435511468401C635039688842DD
:4055C000ECD30020F0BD00005C0C0020F3B50026F64381B0002841DB2349096888423DD8029900293AD0204F142204463F1D54432546396810354859401C2FD0FDF7FEF878
:405600003868415900292BD0211D009146580C21005971430F46C1190C220298FDF7C1FB11480021001D0068761C00590C34C0190160416081600C48001D00680159B142B2
:4056400000D100260849009A091D865008684159491E4151FDF7CAF80020FEBD3046FEBDFDF7C4F8FAE70000580C0020FEB504460D4600201E49089E0860471E0090019007
:405680000290002C11D0486885420ED2002A0CD0002E0AD0642E08D808460C3001681C2068430C18207A002801D03846FEBD0120226020721846FFF7DDFE6060401C13D047
:4056C0006681A6810A4827610C3067610179A94200D205710021684601810A462846029B00F040F82846FEBD00202072DDE70000640C002038B50124009400F039F838BD52
:40570000FEB50027164EFF433D4600240EE01C20316860430818017A002906D04068FFF721FF002801D0254603E0641C3079A042EDDA681C12D01C2130684D434419FDF74F
:405740005DF869466068FFF741FF0546FDF74EF8002DD9D1216868468847D5E7FEBD0000700C002038B50024009400F001F838BD1FB500220C49541E0A60002811DB496843
:4057800088420ED808491C220C31096850430818406801A9FFF7A0FE401C02D0002004B010BD2046FBE70000640C0020F0B50021114A4D1E174611710C3F0B46BD6016E0A2
:4057C00008461C2460431668041D355114680646235014680836A3551468361DA353044616680A34335318301468491C255078688142E5D30020F0BD700C002038B50021A5
:405800000091002811DB0F49097888420DDA0D4D04010C3529680859002807D0201D0818694600F06FF9002801D0002038BDFCF7E5FF28680F34015D491E0155FCF7D6FFA9
:40584000009838BD800C0020F7B582B0002502986E1E06602E48D21C024017462D4A2C4610460C380178106805E02301C358002B0FD0641CE4B28C42F7D3711C28D0340153
:40588000211D40180191039900F02AF900281FD101E02646F1E71F48016820460C300F521C480399026820460E30115419480399026820460F3011540398784300F0A0F83F
:4058C000144900280968085102D00024009011E001251AE00F48016801980818009900F02CF9002801D0012502E00098C0190090641CE4B203988442ECD3002D05D10298C6
:40590000066004480179491C0171284605B0F0BDFCFF00008C0C0020F8B50D4600216A468C461180002839DB23490978884235DA214B04010C3319680A59002A2ED0204689
:405940000C300B5A801C0E5C184670438018954224D3854222D2002006E007465F43BF18AF4206D0401CC0B2B042F6D36046002814D0114E271DC8190C366A46294600F0AB
:4059800006F900280AD168460088012808D030682946C01900F0D1F8002803D00120F8BD0020F8BDFCF72AFF30680F34015D491C0155FCF71BFFF3E7800C0020F8B50F46CA
:4059C000002400F031F8002817D10C4900220B460C334A600EE021011D680E466A501D680C36AA53B61C1D680F31AA551D68641C6A54E4B2BC42EED31A71F8BD800C0020A8
:405A000000280BD0C01C074A81085068890053884118994203D89368516018187047002070470000800C0020F8B5064600200F4D009029700C0121466846FEF765FC00282E
:405A40000CD129460C3100980860301B001F84B221466846FEF758FC002801D0FF20F8BD6C800098A8600020F8BD0000800C0020F8B5002827DB19490978884223DA174CE1
:405A800005010C342168485900281CD028460C30085A009028460E300E5C401C0E5420682F1DC01900F064F800280CD12068002445590EE0094829460C300068C01900F08F
:405AC0003CF8002801D00120F8BD00982D18641CE4B2B442EED30020F8BD0000800C002030B50D4604000BD0A800FFF789FF6060002805D000202570C0436080002030BDD9
:405B0000012030BD70B50D46040005D0002D03D00220205E002801DA012070BDFCF76EFE0221615E60688900405828606088401E6080FCF75BFE002070BD70B50D46040028
:405B400007D0002D05D002212078615E401E814201DB012070BDFCF751FE6088401C00B26080616880000D50FCF740FE002070BD10B5040009D0227800216068FDF71AF91F
:405B80000020C0436080002010BD012010BDF0B500231D46002802D00224045F0AE00120F0BD46689F00F6598E4201D1012503E05B1CDBB29C42F4DA15700020F0BD000058
:405BC0000148007870470000940C00207CB505460024FEF733F9A8796946087000A8062229460130FDF7DDF80021684604F0A8FF0C2806D0072806D01F2806D0122806D085
:405C000006E0022404E0042402E0272400E0012420467CBD10B500F075F9FFF703FAFFF707FA10BD70B504460025FEF707F9002C06D0A079012803D8214602F009FD00E0BA
:405C40000125284670BD01460120002902D05020088000207047000001460120002905D003485422007850430880002070470000960C002010B502460D49FE20487003247E
:405C800010460DF08FFB002810D10DF033FB00280CD105F06BFE002808D100F04FFB002804D105F01DFA002800D10024204610BD940C002070B50025044600280ED0A07969
:405CC00001280BD8FEF7BAF8A0790028204602D003F002F803E002F0D7FF00E00125284670BD0000014610B50120002904D006220248FDF756F8002010BD0000A00C0020A8
:405D000001460120002903D0087802490870002070470000960C002001480079704700002415002038B504460120002C20D0617801291DD800290BD0FF25E535FEF77EF838
:405D40000C4828180088C0B22070072803D00EE0FF25CD35F2E70020694608706846FFF77BF969460878012801D108202070002038BD000000102E40014A00219268104785
:405D8000940C002008B500226B461A7026280CD0094A342852680BD0352805D1900703D50021352005F0BEFE08BD19462620F9E7D007F9D03420F5E7940C00200149087135
:405DC0007047000024150020F8B504460120002C26D06178012902D92278092A20D8002905D0FF25E5352078092803D004E0FF25CD35F8E708202070FEF720F82078114F38
:405E0000114E08280DD00020FFF762F970780128207810D00D4969180880FE2070700020F8BD0120FFF754F90720B8810549203188800120F2E7B8810248217820308180F8
:405E4000EBE70000C0112E40940C002000102E4070B50E46050001D0002400E00C4C002C11D0E28A500609D5D107C90F022003F00DF8E08A40218843E08204E0D107C90F25
:405E8000012003F003F83146284602F0E7FC70BD84140020F8B50546002004460D4E009013E022466946284600F0A6FE0098002801D00DF059FAA878214602F01BFBA8784B
:405EC000214602F009FB641CE4B2308AA042E8D8F8BD00004C150020064A02235188891C89B25180814201D8102900D95380508870470000A60C0020014840787047000004
:405F0000A60C002038B51E4CFFF78CF8042813D0052811D0062812D003282AD007280AD100206946087002460120FEF79DFFFFF779F80128FBD138BD00F0E1FB38BD02F01D
:405F400045FB00F0DCFB02F0A5FB8007800F0228F4D10C4841880029F0D05B21095D0029ECD101210170A07D0140022002F08EFF38BD02F02FFB0120FFF784F838BD00008A
:405F800084140020AA0C0020F8B50646002402F0DBFF0546304602F0F1FF03460A480021068A0DE001228A401046174628401F40002803D0002F01D1224394B2491CC9B2A0
:405FC0008E42EFD82046F8BD4C1500201CB50020694648706846FFF7A5FE01AA69460A20FEF742FF6946042008561CBD70B50D4601F0A8F904000BD02079002808D0FDF795
:406000001DFFE178A0782A4602F0BEFC002070BD022070BD01480078704700005C1400204030C07E002800D00120704700B500F001F800BD902148430749084A4018603074
:40604000417F491CC9B24177D289914201D300214177C8B270470000641400204C15002013B501F06FF904000BD001F032FE002807D0214601AA0A310620FEF7F5FE002008
:406080001CBD02201CBD000010B50C4601F05AF900280AD001F01DFE002806D0224604490A20FEF7E1FE002010BD022010BD000045140020F3B581B0074601460026029870
:4060C00002F03AFF0446002F01D0002500E0154D002D21D0284601F06BF9032C04D13946029802F085FF06463846029902F0F4F9032C06D0002C10D00121384601F008FB67
:4061000003E03146384603F007F9284602F0ECF80221284602F002F9FEBD3846029902F0DBF9FEBD8414002010B5044600F0D0FA002804D104F07AF8002801D00C2010BDA7
:406140002078611C02F01CFDFF2801D01F2010BD02F062FDFF280AD02178621C02F052F9044821780068026B601C904710BD072010BD0000C80C002010B504F057F8002863
:4061800001D00C2010BD02F0DDFC03480068C06A8047002010BD0000C80C002070B50D46044610210DF020F81021601806460DF01BF8334610221946204604F065F81021C6
:4061C00030460DF011F802202870204604F0ACFE70BD0000F8B504464078217802028006870FE0781143A67809050002090D0643084601F0A7F800210546F2B2002812D09F
:40620000002C10D0022F0ED0032F0CD0002A0AD00279092A07D0002A05D0134A5A23527E1B5C9A4207D82889002104F073FD20460DF09AF8FF21002914D10C482246006854
:406240002946436930469847C0B2FF280AD128464030817EF2B2491C8176FF232146284600F009F9F8BD00001C140020E40C00200020704710B5044603F0D8FF002801D0B6
:406280000C2010BD2078611C02F07AFCFF2808D002F0BEFB044821780068426B601C904710BD1F2010BD0000C80C002010B500F0A9F904F015FF002010BD000010B5044649
:4062C0000F4801F02FFD012817D00D4805222146AC30FCF766FD0A490522AC310846BC38FCF75FFD00F03CFD054880222038C17B1143C17300F0BCF910BD3A2010BD000050
:406300008414002010B5044600786178E2780843A17811430843217908436179084305D003F076FF002803D00C2010BD122010BD204602F0D1FC002010BD000010B5FCF7E4
:4063400081FA02F023FE044803F0FEFF02F06AFB012000F003F810BD2C140020F1B586B003A8009005A8019028489F22817A114081726846FDF77CFD002845D16946098964
:40638000C90705D0224806990068C2686846904769460989890706D5002835D11D480068816A0698884700282ED11B4E0025757075737571F575357675767575B570F5703D
:4063C000B5713746F5730120CC3738731F20F880FF2130467972A0300176457603F074FC01F058FC00242046069901F005FC002803D1641C2406240EF5D0FD720649BD723C
:40640000B573C0310D600D7107B0F0BD1C140020E40C0020C80C00206414002070B505460E46084602F090FD0446304602F0A6FD0121A9400A46224001400A4301D00120E5
:4064400070BD002070BD10B50446084602F096FD0121A140014201D0012010BD002010BD10B5FEF7DFFD032804D102F0B3F80120FEF708FE10BDFEB51C4616460F460546A1
:4064800001F032FFA878FFF7D1FD02460190334639460094284600F00DF8002808D1A8780199FFF7D5FCFF2C02D138460CF05CFFFEBD0000FFB585B005460E980C46FF28AB
:4064C00010D02B49C00009680A5840180179C0795278814201D9012601E09006860F6846038108E06078A1788006860FE0780002014368460181284601F000FC070007D0E3
:4065000021462846079A00F023FB384609B0F0BD304600F009FC04AE0346039002AA29460096204600F00FFA3C20405D002818D0284601F0E3FB012813D0684600890096CB
:40654000C0B20190A878231DFF22079902F03AF968460089039BC2B2A878079902F07EFCD3E7684600890021C0B20091E9E70000E00C0020F8B5002600253046FFF704FD07
:4065800007001DD090201149704340186030447F12E0601CFCF7DAFACCB23846E040C007C00F07D02146304601F08EFF21463046FFF780FD6D1CEDB20548018AA942E8D86B
:4065C000761C3606360ED7D0F8BD0000641400204C15002070B50024094D03E0002C01D0002000E028464121095C012901D100F068FA641C2406240EF0D000F039F870BD28
:406600008414002010B502F00DFA0020FFF7A6FE0CF040FF002010BDF8B5002403F0F0FA012800D10224114F00203E46203601230425082203E0002801D0002100E031460F
:406640000979002907D001290BD002290BD0114681402143CCB2401C0006000EEBD07C70F8BD1C43F7E72C43F5E700006414002070B5144E0024F07BC00921D03546203507
:4066800003E0002C01D0002000E0284601F02CFB012814D0641C2406240EF2D0F07B4006400EF073002403E0002C01D0002000E0284600F006FA641C2406240EF4D0002045
:4066C00070BD00006414002010B5FFF7A5FF10BD10B5044604F0E1FE002802D1601C00F001F810BD1CB500240094062269460194FCF748FB002800D1122420461CBD10B53C
:40670000FBF767FF0446FEF78DFC012809D0FEF789FC022805D0FCF771F92046FBF75DFFEEE72046FBF759FF10BD10B50B4681791943817103D08078114602F047FB10BDDA
:4067400010B582798A43827102D1807802F052FB10BD00000346084800B5834209D8184600F0F0FD002804D00089984201D1012000BD002000BD0000FF0E0000074A91793F
:40678000491C8906890E917138220A4092014907090E1143084302490840704764140020FF0E0000C006C00E70470000F8B507460E4600240D4803E0002C01D0002500E029
:4067C00005462979002905D0641C2406240EF3D00020F8BD0021204601F00EFA2E712046FFF7CCFF28813C700120F8BD84140020F7B53D20405C88B015460C46002802D08D
:406800002878042802D200200BB0F0BD6946087200262046FFF704FC012800D00126204603A938300191009023460327A17E34333246206A03F0A8FD02A8089900900B46EA
:40684000019120463A4603A9243003F0FDFC02466846007A2870204601F0BAF91046D3E7FFB587B00C4605461078694608723D20005D1746002826D000262046FFF7D0FBD7
:40688000012800D00126204603A93830019100902346A17E34333246206A03F075FD02A80090291D019120462B1D03A924300A9A03F0CAFC02006846007A388002D120468E
:4068C00001F086F910460BB0F0BDF0B505463C20405C89B016460C4600280CD0307869460873002806D000272046FFF799FB012803D003E01F2009B0F0BD01270320089049
:40690000204604A93830019100902346E17E34333A46E06903F038FD6846007B03A928180290009120462B46019504A92430089A03F0BEFC02466846007B3070204601F03D
:4069400051F91046D7E7FFB505463C20405C89B016460C46002810D0084601F0CFF901280BD0308869468883002809D000272046FFF756FB012805D005E000200DB0F0BD14
:406980000220FBE70127204603A93830019100902346E17E34333A46E06903F0F5FC291D2B1D07A8129A6D4607C5204603A924300C9A03F07DFC02466846808B308020463C
:4069C00001F010F91046D9E710B518490446484028D0002101231A468A40904221D0491C2029F8D300212046C840C243520618D0400616D0491C1929F5D3A0B2210C020AF2
:406A0000C3B2884201D193420BD01F21204600F090F9182805D8A00E062100F08AF9022801D2002010BD012010BD0000D6BE898E002801D0002000E003484030C07F012872
:406A400000D0002070470000841400200146002049070ED50021084B03E0002901D0002200E01A461279022A04D0491C0906090EF3D07047012070478414002001460020E3
:406A800049070ED50021084B03E0002901D0002200E01A461279022A04D0491C0906090EF3D07047012070478414002010B5044680346068002803D00CF06AFC0020606008
:406AC00010BD38B50546002000902846FFF7A8FA01281FD1284601F0FCF800281AD028792C46C01E40340300FDF770FB07050511110511141100284601F006F9012806D0CB
:406B000068460CF0D7FB002805D0012008E060780028FAD038BD2846009902F043FD0220607038BD40308170704770B50546403528780C46052904D0002C05D1801E022839
:406B400002D8022002F0BEFE2C7070BD0171704792001018C166704710B5002801D0002000E00348002802D0008904F047F910BD8414002010B5002801D0002000E0044892
:406B8000002804D00179072901D100F08BF810BD8414002010B54121095C012901D1FFF790FF002010BD000070B50546008A00281ED01049F122897A1140C90618D5294670
:406BC00040314A8A098A521C4A4392B2D10800D10121540801E0621A94B2A042FBD9FEF7EFFF012804D1298AA878224601F072FE70BD00001C14002010B50023054C0B605F
:406C0000248A944204D992001018C26E0A60C36610BD00004C150020FEB506460020009001908020855968460CF044FB002801D00720FEBD20213046009FFFF781FD344662
:406C40004034A08AE080608AA080208A2081304602F09EFEA88C218A884207D1288A618A884203D1688AA18A884203D0F07920210843F071688AA082288A6082A88C208273
:406C8000E98CE182FFF728F9E081208AFFF734F960733946304602F0ADFC0120A0700198FEBD000038B5044600200090A079002814D14020015D052901D00E290ED1684641
:406CC0000CF0F8FA002809D12046009902F074FD03481021C28A2046FFF727FD38BD00001C14002010B50446807802F081FE204601F088F9002010BD10B50B4604460146D1
:406D0000184602F0A9F9002802D020460CF036FB10BD13B5044601AA11460620FEF7A4F86846818861811CBD002800D102207047704770B500231A46491E0CE00446D440E8
:406D4000E507ED0F541C0646E640F407E40FA54200D05B1C521C8A42F0D3D8B270BD000030B50021124C0A46A05C002308E0C50701D0491CC9B201290AD840085B1CDBB2E9
:406D80000028F4D1012903D8521CD2B2052AEBD302290BD207488118C87B0122082B03D29A400243D0B200E01043C87330BD000030150020641400207FB5044680346168B0
:406DC00005460E46183108226846FBF7EAFF31462031082202A8FBF7E4FF102168460CF003FA6068102108300CF0FEF960682B46083024331022694603F046FA7FBD10B5AE
:406E000004460821FFF79CFC10212046FFF798FC2079052822D0062820D008281DD12189002003F05DFF072020712046FFF7F8F8012819D00E212046FFF777FE0021582074
:406E40000155204601F064F92046FFF72FFE2046FFF7AAFE2046FFF79DFE10BD20890122002103F021FFDEE70521E4E7FFB581B01F4604460821FFF763FC10212046FFF762
:406E80005FFC2079082803D0092804D0042503E00425012601E009250026204600F010FF00212046FFF741FE25712046FFF7FEFD0398002E02D0012808D00BE001280AD1AC
:406EC00020890022029903F0EFFE04E02189029803F006FF01272046002140300176012F07D0204601F014F92046FFF753FE05B0F0BD02990173204602F0A1FC0546054880
:406F00000121C28A2046FFF710FC002DEFD109202071ECE71C14002070B50C460546FFF77FF8012809D108212846FFF709FC0023012221462846FFF799FF70BD10B5044608
:406F400000F0BEFE2046FFF7B1FD00212046FFF7ECFD10BD70B505461A24FFF761F8012809D108212846FFF7EBFB0023012221462846FFF77BFF70BD38B5054600216846F6
:406F800000910CF097F9002801D00D2038BD2846009C00F0E5FE2146284602F0B7FB06480821C28A2846FFF7C0FB06212846FFF7BCFD002038BD00001C140020F8B50446C1
:406FC000002000900E4668460CF074F9002801D00D20F8BD204604213430009D00F0ADF9842000590821183000F0A7F9012E02D1204600F0B5FE2946204602F041FB06481F
:407000000821C28A2046FFF790FB02212046FFF78CFD0020F8BD00001C14002010B50446FFF7CAFE03212046FFF77FFD204601F05BF910BD10B50021FFF7C0FF10BD00001E
:4070400038B504460021684600910CF033F9002811D12046009A00F033FE1146204602F060FB05480821C28A2046FFF75EFB07212046FFF75AFD38BD1C14002038B504464E
:407080000021684600910CF015F9002810D12046009902F0C9FB07480821C28A2046FFF744FB04212046FFF740FD204601F01CF938BD00001C14002010B5FFF7A0FE10BDB4
:4070C00000787047F8B5002569460D70002801D0002400E01E4C002C18D0204600F0F9FD002813D0207903280BD005280CD026464036B18AA07801F061FEB078012806D03D
:407100001CE0042020711CE006202071F8BD0021204601F0D1FF274680373868002802D00CF036F93D600020B0702046FFF732FD2079072802D12046FFF736FD20790428AE
:40714000E4D1207A694608703420FEF71BFEF8BD8414002010B54C22115400F04CF810BD10B50446FF21FFF7EBFA09202071A07801F04AFE10BD000038B5FF216A46118001
:40718000002801D0002400E0084C002C0DD011460620FDF769FE684601882046FFF7B9FD03480068C1692046884738BD84140020E40C002010B504468079002809D0222139
:4071C0004C200155FF212046FFF7BAFA204600F012F810BD10B5037902464032002B03D01173092B02D003E0002100E02221117300F001F810BDFEB504460089002700904F
:40720000278120792646403600281AD0012818D0022816D0002002F055FB09E002AA01A9204601F007FF002807D101980CF0A6F8204601F027FF0028F0D02046FEF72AFEDF
